{
  "_format": "hh-sol-artifact-1",
  "contractName": "Database",
  "sourceName": "contracts/Database.sol",
  "abi": [
    {
      "inputs": [],
      "stateMutability": "nonpayable",
      "type": "constructor"
    },
    {
      "anonymous": false,
      "inputs": [
        {
          "indexed": true,
          "internalType": "uint256",
          "name": "collectionId",
          "type": "uint256"
        },
        {
          "indexed": false,
          "internalType": "uint256",
          "name": "organisationId",
          "type": "uint256"
        },
        {
          "indexed": false,
          "internalType": "string",
          "name": "collectionName",
          "type": "string"
        },
        {
          "indexed": false,
          "internalType": "string[]",
          "name": "collectionInfoFields",
          "type": "string[]"
        },
        {
          "indexed": false,
          "internalType": "uint256[]",
          "name": "collectionInfoDataTypes",
          "type": "uint256[]"
        },
        {
          "indexed": false,
          "internalType": "string[]",
          "name": "collectionInfoValues",
          "type": "string[]"
        },
        {
          "indexed": false,
          "internalType": "string[]",
          "name": "fieldNames",
          "type": "string[]"
        },
        {
          "indexed": false,
          "internalType": "uint256[]",
          "name": "fieldDataTypes",
          "type": "uint256[]"
        },
        {
          "indexed": false,
          "internalType": "address",
          "name": "owner",
          "type": "address"
        }
      ],
      "name": "CollectionCreated",
      "type": "event"
    },
    {
      "anonymous": false,
      "inputs": [
        {
          "indexed": true,
          "internalType": "uint256",
          "name": "collectionId",
          "type": "uint256"
        },
        {
          "indexed": true,
          "internalType": "uint256",
          "name": "organisationId",
          "type": "uint256"
        },
        {
          "indexed": false,
          "internalType": "string",
          "name": "collectionName",
          "type": "string"
        },
        {
          "indexed": false,
          "internalType": "string[]",
          "name": "collectionInfoFields",
          "type": "string[]"
        },
        {
          "indexed": false,
          "internalType": "uint256[]",
          "name": "collectionInfoDataTypes",
          "type": "uint256[]"
        },
        {
          "indexed": false,
          "internalType": "string[]",
          "name": "collectionInfoValues",
          "type": "string[]"
        },
        {
          "indexed": false,
          "internalType": "string[]",
          "name": "fieldNames",
          "type": "string[]"
        },
        {
          "indexed": false,
          "internalType": "uint256[]",
          "name": "fieldDataTypes",
          "type": "uint256[]"
        },
        {
          "indexed": false,
          "internalType": "address",
          "name": "owner",
          "type": "address"
        },
        {
          "indexed": false,
          "internalType": "bool",
          "name": "retired",
          "type": "bool"
        }
      ],
      "name": "CollectionUpdated",
      "type": "event"
    },
    {
      "anonymous": false,
      "inputs": [
        {
          "indexed": true,
          "internalType": "uint256",
          "name": "documentId",
          "type": "uint256"
        },
        {
          "indexed": true,
          "internalType": "uint256",
          "name": "organisationId",
          "type": "uint256"
        },
        {
          "indexed": true,
          "internalType": "uint256",
          "name": "collectionId",
          "type": "uint256"
        },
        {
          "indexed": false,
          "internalType": "string[]",
          "name": "fieldNames",
          "type": "string[]"
        },
        {
          "indexed": false,
          "internalType": "uint256[]",
          "name": "fieldDataTypes",
          "type": "uint256[]"
        },
        {
          "indexed": false,
          "internalType": "string[]",
          "name": "fieldValues",
          "type": "string[]"
        },
        {
          "indexed": false,
          "internalType": "address",
          "name": "owner",
          "type": "address"
        }
      ],
      "name": "DocumentPublished",
      "type": "event"
    },
    {
      "anonymous": false,
      "inputs": [
        {
          "indexed": true,
          "internalType": "uint256",
          "name": "collectionId",
          "type": "uint256"
        },
        {
          "indexed": true,
          "internalType": "uint256",
          "name": "documentId",
          "type": "uint256"
        },
        {
          "indexed": true,
          "internalType": "uint256",
          "name": "organisationId",
          "type": "uint256"
        },
        {
          "indexed": false,
          "internalType": "string[]",
          "name": "fieldNames",
          "type": "string[]"
        },
        {
          "indexed": false,
          "internalType": "uint256[]",
          "name": "fieldDataTypes",
          "type": "uint256[]"
        },
        {
          "indexed": false,
          "internalType": "string[]",
          "name": "fieldValues",
          "type": "string[]"
        },
        {
          "indexed": false,
          "internalType": "address",
          "name": "owner",
          "type": "address"
        },
        {
          "indexed": false,
          "internalType": "bool",
          "name": "retired",
          "type": "bool"
        }
      ],
      "name": "DocumentUpdated",
      "type": "event"
    },
    {
      "anonymous": false,
      "inputs": [
        {
          "indexed": true,
          "internalType": "address",
          "name": "newFeeCollectorAddress",
          "type": "address"
        }
      ],
      "name": "FeeCollectorAddressUpdated",
      "type": "event"
    },
    {
      "anonymous": false,
      "inputs": [
        {
          "indexed": true,
          "internalType": "uint256",
          "name": "organisationId",
          "type": "uint256"
        },
        {
          "indexed": false,
          "internalType": "string",
          "name": "organisationName",
          "type": "string"
        },
        {
          "indexed": false,
          "internalType": "string[]",
          "name": "organisationInfoFields",
          "type": "string[]"
        },
        {
          "indexed": false,
          "internalType": "uint256[]",
          "name": "organisationInfoDataTypes",
          "type": "uint256[]"
        },
        {
          "indexed": false,
          "internalType": "string[]",
          "name": "organisationInfoValues",
          "type": "string[]"
        }
      ],
      "name": "OrganisationCreated",
      "type": "event"
    },
    {
      "anonymous": false,
      "inputs": [
        {
          "indexed": true,
          "internalType": "uint256",
          "name": "organisationId",
          "type": "uint256"
        },
        {
          "indexed": false,
          "internalType": "string",
          "name": "organisationName",
          "type": "string"
        },
        {
          "indexed": false,
          "internalType": "string[]",
          "name": "organisationInfoFields",
          "type": "string[]"
        },
        {
          "indexed": false,
          "internalType": "uint256[]",
          "name": "organisationInfoDataTypes",
          "type": "uint256[]"
        },
        {
          "indexed": false,
          "internalType": "string[]",
          "name": "organisationInfoValues",
          "type": "string[]"
        },
        {
          "indexed": false,
          "internalType": "bool",
          "name": "retired",
          "type": "bool"
        }
      ],
      "name": "OrganisationUpdated",
      "type": "event"
    },
    {
      "anonymous": false,
      "inputs": [
        {
          "indexed": true,
          "internalType": "address",
          "name": "previousOwner",
          "type": "address"
        },
        {
          "indexed": true,
          "internalType": "address",
          "name": "newOwner",
          "type": "address"
        }
      ],
      "name": "OwnershipTransferred",
      "type": "event"
    },
    {
      "anonymous": false,
      "inputs": [
        {
          "indexed": true,
          "internalType": "uint256",
          "name": "newCreationFee",
          "type": "uint256"
        }
      ],
      "name": "collectionCreationFeeChanged",
      "type": "event"
    },
    {
      "anonymous": false,
      "inputs": [
        {
          "indexed": true,
          "internalType": "uint256",
          "name": "organisationId",
          "type": "uint256"
        },
        {
          "indexed": true,
          "internalType": "uint256",
          "name": "collectionId",
          "type": "uint256"
        },
        {
          "indexed": true,
          "internalType": "address",
          "name": "user",
          "type": "address"
        },
        {
          "indexed": false,
          "internalType": "bool",
          "name": "status",
          "type": "bool"
        }
      ],
      "name": "collectionPublisherChanged",
      "type": "event"
    },
    {
      "anonymous": false,
      "inputs": [
        {
          "indexed": true,
          "internalType": "uint256",
          "name": "newUpdateFee",
          "type": "uint256"
        }
      ],
      "name": "collectionUpdateFeeChanged",
      "type": "event"
    },
    {
      "anonymous": false,
      "inputs": [
        {
          "indexed": true,
          "internalType": "uint256",
          "name": "newCreationFee",
          "type": "uint256"
        }
      ],
      "name": "documentCreationFeeChanged",
      "type": "event"
    },
    {
      "anonymous": false,
      "inputs": [
        {
          "indexed": true,
          "internalType": "uint256",
          "name": "newUpdateFee",
          "type": "uint256"
        }
      ],
      "name": "documentUpdateFeeChanged",
      "type": "event"
    },
    {
      "anonymous": false,
      "inputs": [
        {
          "indexed": true,
          "internalType": "uint256",
          "name": "organisationId",
          "type": "uint256"
        },
        {
          "indexed": true,
          "internalType": "uint256",
          "name": "collectionId",
          "type": "uint256"
        },
        {
          "indexed": true,
          "internalType": "uint256",
          "name": "documentId",
          "type": "uint256"
        },
        {
          "indexed": false,
          "internalType": "address",
          "name": "user",
          "type": "address"
        },
        {
          "indexed": false,
          "internalType": "bool",
          "name": "status",
          "type": "bool"
        }
      ],
      "name": "documentUpdatorChanged",
      "type": "event"
    },
    {
      "anonymous": false,
      "inputs": [
        {
          "indexed": true,
          "internalType": "uint256",
          "name": "organisationId",
          "type": "uint256"
        },
        {
          "indexed": true,
          "internalType": "address",
          "name": "user",
          "type": "address"
        },
        {
          "indexed": false,
          "internalType": "bool",
          "name": "status",
          "type": "bool"
        }
      ],
      "name": "orgAdminChanged",
      "type": "event"
    },
    {
      "anonymous": false,
      "inputs": [
        {
          "indexed": true,
          "internalType": "uint256",
          "name": "newCreationFee",
          "type": "uint256"
        }
      ],
      "name": "orgCreationFeeChanged",
      "type": "event"
    },
    {
      "anonymous": false,
      "inputs": [
        {
          "indexed": true,
          "internalType": "uint256",
          "name": "newUpdateFee",
          "type": "uint256"
        }
      ],
      "name": "orgUpdateFeeChanged",
      "type": "event"
    },
    {
      "inputs": [
        {
          "internalType": "uint256",
          "name": "_creationFee",
          "type": "uint256"
        }
      ],
      "name": "changeCollectionCreationFee",
      "outputs": [],
      "stateMutability": "nonpayable",
      "type": "function"
    },
    {
      "inputs": [
        {
          "internalType": "uint256",
          "name": "_updateFee",
          "type": "uint256"
        }
      ],
      "name": "changeCollectionUpdateFee",
      "outputs": [],
      "stateMutability": "nonpayable",
      "type": "function"
    },
    {
      "inputs": [
        {
          "internalType": "uint256",
          "name": "_creationFee",
          "type": "uint256"
        }
      ],
      "name": "changeDocumentCreationFee",
      "outputs": [],
      "stateMutability": "nonpayable",
      "type": "function"
    },
    {
      "inputs": [
        {
          "internalType": "uint256",
          "name": "_updateFee",
          "type": "uint256"
        }
      ],
      "name": "changeDocumentUpdateFee",
      "outputs": [],
      "stateMutability": "nonpayable",
      "type": "function"
    },
    {
      "inputs": [
        {
          "internalType": "address payable",
          "name": "_feeCollectorAddress",
          "type": "address"
        }
      ],
      "name": "changeFeeCollectorAddress",
      "outputs": [],
      "stateMutability": "nonpayable",
      "type": "function"
    },
    {
      "inputs": [
        {
          "internalType": "uint256",
          "name": "_creationFee",
          "type": "uint256"
        }
      ],
      "name": "changeOrgCreationFee",
      "outputs": [],
      "stateMutability": "nonpayable",
      "type": "function"
    },
    {
      "inputs": [
        {
          "internalType": "uint256",
          "name": "_updateFee",
          "type": "uint256"
        }
      ],
      "name": "changeOrgUpdateFee",
      "outputs": [],
      "stateMutability": "nonpayable",
      "type": "function"
    },
    {
      "inputs": [],
      "name": "collectionCreationFee",
      "outputs": [
        {
          "internalType": "uint256",
          "name": "",
          "type": "uint256"
        }
      ],
      "stateMutability": "view",
      "type": "function"
    },
    {
      "inputs": [
        {
          "internalType": "uint256",
          "name": "",
          "type": "uint256"
        },
        {
          "internalType": "uint256",
          "name": "",
          "type": "uint256"
        },
        {
          "internalType": "address",
          "name": "",
          "type": "address"
        }
      ],
      "name": "collectionPublishers",
      "outputs": [
        {
          "internalType": "bool",
          "name": "",
          "type": "bool"
        }
      ],
      "stateMutability": "view",
      "type": "function"
    },
    {
      "inputs": [],
      "name": "collectionUpdateFee",
      "outputs": [
        {
          "internalType": "uint256",
          "name": "",
          "type": "uint256"
        }
      ],
      "stateMutability": "view",
      "type": "function"
    },
    {
      "inputs": [
        {
          "internalType": "uint256",
          "name": "_organisationId",
          "type": "uint256"
        },
        {
          "internalType": "string",
          "name": "_collectionName",
          "type": "string"
        },
        {
          "internalType": "string[]",
          "name": "_collectionInfoFields",
          "type": "string[]"
        },
        {
          "internalType": "uint256[]",
          "name": "_collectionInfoDataTypes",
          "type": "uint256[]"
        },
        {
          "internalType": "string[]",
          "name": "_collectionInfoValues",
          "type": "string[]"
        },
        {
          "internalType": "string[]",
          "name": "_fieldNames",
          "type": "string[]"
        },
        {
          "internalType": "uint256[]",
          "name": "_fieldDataTypes",
          "type": "uint256[]"
        }
      ],
      "name": "createCollection",
      "outputs": [],
      "stateMutability": "payable",
      "type": "function"
    },
    {
      "inputs": [
        {
          "internalType": "string",
          "name": "_organisationName",
          "type": "string"
        },
        {
          "internalType": "string[]",
          "name": "_organisationInfoFields",
          "type": "string[]"
        },
        {
          "internalType": "uint256[]",
          "name": "_organisationInfoDataTypes",
          "type": "uint256[]"
        },
        {
          "internalType": "string[]",
          "name": "_organisationInfoValues",
          "type": "string[]"
        }
      ],
      "name": "createOrganisation",
      "outputs": [
        {
          "internalType": "uint256",
          "name": "organisationId",
          "type": "uint256"
        }
      ],
      "stateMutability": "payable",
      "type": "function"
    },
    {
      "inputs": [
        {
          "internalType": "string",
          "name": "_organisationName",
          "type": "string"
        },
        {
          "internalType": "string[]",
          "name": "_organisationInfoFields",
          "type": "string[]"
        },
        {
          "internalType": "uint256[]",
          "name": "_organisationInfoDataTypes",
          "type": "uint256[]"
        },
        {
          "internalType": "string[]",
          "name": "_organisationInfoValues",
          "type": "string[]"
        },
        {
          "internalType": "string",
          "name": "_collectionName",
          "type": "string"
        },
        {
          "internalType": "string[]",
          "name": "_collectionInfoFields",
          "type": "string[]"
        },
        {
          "internalType": "uint256[]",
          "name": "_collectionInfoDataTypes",
          "type": "uint256[]"
        },
        {
          "internalType": "string[]",
          "name": "_collectionInfoValues",
          "type": "string[]"
        },
        {
          "internalType": "string[]",
          "name": "_fieldNames",
          "type": "string[]"
        },
        {
          "internalType": "uint256[]",
          "name": "_fieldDataTypes",
          "type": "uint256[]"
        }
      ],
      "name": "createOrganisationAndCollection",
      "outputs": [],
      "stateMutability": "payable",
      "type": "function"
    },
    {
      "inputs": [],
      "name": "docCreationFee",
      "outputs": [
        {
          "internalType": "uint256",
          "name": "",
          "type": "uint256"
        }
      ],
      "stateMutability": "view",
      "type": "function"
    },
    {
      "inputs": [],
      "name": "documentUpdateFee",
      "outputs": [
        {
          "internalType": "uint256",
          "name": "",
          "type": "uint256"
        }
      ],
      "stateMutability": "view",
      "type": "function"
    },
    {
      "inputs": [],
      "name": "feeCollectorAddress",
      "outputs": [
        {
          "internalType": "address payable",
          "name": "",
          "type": "address"
        }
      ],
      "stateMutability": "view",
      "type": "function"
    },
    {
      "inputs": [],
      "name": "getFees",
      "outputs": [
        {
          "internalType": "uint256",
          "name": "",
          "type": "uint256"
        },
        {
          "internalType": "uint256",
          "name": "",
          "type": "uint256"
        },
        {
          "internalType": "uint256",
          "name": "",
          "type": "uint256"
        },
        {
          "internalType": "uint256",
          "name": "",
          "type": "uint256"
        },
        {
          "internalType": "uint256",
          "name": "",
          "type": "uint256"
        },
        {
          "internalType": "uint256",
          "name": "",
          "type": "uint256"
        }
      ],
      "stateMutability": "view",
      "type": "function"
    },
    {
      "inputs": [
        {
          "internalType": "uint256",
          "name": "organisationId",
          "type": "uint256"
        },
        {
          "internalType": "uint256",
          "name": "collectionId",
          "type": "uint256"
        },
        {
          "internalType": "address",
          "name": "user",
          "type": "address"
        }
      ],
      "name": "isCollectionPublisher",
      "outputs": [
        {
          "internalType": "bool",
          "name": "",
          "type": "bool"
        }
      ],
      "stateMutability": "view",
      "type": "function"
    },
    {
      "inputs": [
        {
          "internalType": "uint256",
          "name": "organisationId",
          "type": "uint256"
        },
        {
          "internalType": "uint256",
          "name": "collectionId",
          "type": "uint256"
        },
        {
          "internalType": "uint256",
          "name": "documentId",
          "type": "uint256"
        },
        {
          "internalType": "address",
          "name": "user",
          "type": "address"
        }
      ],
      "name": "isDocumentUpdator",
      "outputs": [
        {
          "internalType": "bool",
          "name": "",
          "type": "bool"
        }
      ],
      "stateMutability": "view",
      "type": "function"
    },
    {
      "inputs": [
        {
          "internalType": "uint256",
          "name": "organisationId",
          "type": "uint256"
        },
        {
          "internalType": "address",
          "name": "user",
          "type": "address"
        }
      ],
      "name": "isOrgAdmin",
      "outputs": [
        {
          "internalType": "bool",
          "name": "",
          "type": "bool"
        }
      ],
      "stateMutability": "view",
      "type": "function"
    },
    {
      "inputs": [
        {
          "internalType": "uint256",
          "name": "",
          "type": "uint256"
        },
        {
          "internalType": "address",
          "name": "",
          "type": "address"
        }
      ],
      "name": "orgAdmins",
      "outputs": [
        {
          "internalType": "bool",
          "name": "",
          "type": "bool"
        }
      ],
      "stateMutability": "view",
      "type": "function"
    },
    {
      "inputs": [],
      "name": "orgCreationFee",
      "outputs": [
        {
          "internalType": "uint256",
          "name": "",
          "type": "uint256"
        }
      ],
      "stateMutability": "view",
      "type": "function"
    },
    {
      "inputs": [],
      "name": "orgUpdateFee",
      "outputs": [
        {
          "internalType": "uint256",
          "name": "",
          "type": "uint256"
        }
      ],
      "stateMutability": "view",
      "type": "function"
    },
    {
      "inputs": [],
      "name": "owner",
      "outputs": [
        {
          "internalType": "address",
          "name": "",
          "type": "address"
        }
      ],
      "stateMutability": "view",
      "type": "function"
    },
    {
      "inputs": [
        {
          "internalType": "uint256",
          "name": "_organisationId",
          "type": "uint256"
        },
        {
          "internalType": "uint256",
          "name": "_collectionId",
          "type": "uint256"
        },
        {
          "internalType": "string[]",
          "name": "_fieldNames",
          "type": "string[]"
        },
        {
          "internalType": "uint256[]",
          "name": "_fieldDataTypes",
          "type": "uint256[]"
        },
        {
          "internalType": "string[]",
          "name": "_fieldValues",
          "type": "string[]"
        }
      ],
      "name": "publishDocument",
      "outputs": [],
      "stateMutability": "payable",
      "type": "function"
    },
    {
      "inputs": [],
      "name": "renounceOwnership",
      "outputs": [],
      "stateMutability": "nonpayable",
      "type": "function"
    },
    {
      "inputs": [
        {
          "internalType": "address",
          "name": "newOwner",
          "type": "address"
        }
      ],
      "name": "transferOwnership",
      "outputs": [],
      "stateMutability": "nonpayable",
      "type": "function"
    },
    {
      "inputs": [
        {
          "internalType": "uint256",
          "name": "_organisationId",
          "type": "uint256"
        },
        {
          "internalType": "uint256",
          "name": "_collectionId",
          "type": "uint256"
        },
        {
          "internalType": "string",
          "name": "_collectionName",
          "type": "string"
        },
        {
          "internalType": "string[]",
          "name": "_collectionInfoFields",
          "type": "string[]"
        },
        {
          "internalType": "uint256[]",
          "name": "_collectionInfoDataTypes",
          "type": "uint256[]"
        },
        {
          "internalType": "string[]",
          "name": "_collectionInfoValues",
          "type": "string[]"
        },
        {
          "internalType": "string[]",
          "name": "_fieldNames",
          "type": "string[]"
        },
        {
          "internalType": "uint256[]",
          "name": "_fieldDataTypes",
          "type": "uint256[]"
        },
        {
          "internalType": "bool",
          "name": "_retired",
          "type": "bool"
        }
      ],
      "name": "updateCollection",
      "outputs": [],
      "stateMutability": "payable",
      "type": "function"
    },
    {
      "inputs": [
        {
          "internalType": "uint256",
          "name": "organisationId",
          "type": "uint256"
        },
        {
          "internalType": "uint256",
          "name": "collectionId",
          "type": "uint256"
        },
        {
          "internalType": "address",
          "name": "user",
          "type": "address"
        },
        {
          "internalType": "bool",
          "name": "status",
          "type": "bool"
        }
      ],
      "name": "updateCollectionPublishers",
      "outputs": [],
      "stateMutability": "nonpayable",
      "type": "function"
    },
    {
      "inputs": [
        {
          "internalType": "uint256",
          "name": "_organisationId",
          "type": "uint256"
        },
        {
          "internalType": "uint256",
          "name": "_collectionId",
          "type": "uint256"
        },
        {
          "internalType": "uint256",
          "name": "_documentId",
          "type": "uint256"
        },
        {
          "internalType": "string[]",
          "name": "_fieldNames",
          "type": "string[]"
        },
        {
          "internalType": "uint256[]",
          "name": "_fieldDataTypes",
          "type": "uint256[]"
        },
        {
          "internalType": "string[]",
          "name": "_fieldValues",
          "type": "string[]"
        },
        {
          "internalType": "bool",
          "name": "_retired",
          "type": "bool"
        }
      ],
      "name": "updateDocument",
      "outputs": [],
      "stateMutability": "payable",
      "type": "function"
    },
    {
      "inputs": [
        {
          "internalType": "uint256",
          "name": "organisationId",
          "type": "uint256"
        },
        {
          "internalType": "uint256",
          "name": "collectionId",
          "type": "uint256"
        },
        {
          "internalType": "uint256",
          "name": "documentId",
          "type": "uint256"
        },
        {
          "internalType": "address",
          "name": "user",
          "type": "address"
        },
        {
          "internalType": "bool",
          "name": "status",
          "type": "bool"
        }
      ],
      "name": "updateDocumentUpdatorRole",
      "outputs": [],
      "stateMutability": "nonpayable",
      "type": "function"
    },
    {
      "inputs": [
        {
          "internalType": "uint256",
          "name": "organisationId",
          "type": "uint256"
        },
        {
          "internalType": "address",
          "name": "user",
          "type": "address"
        },
        {
          "internalType": "bool",
          "name": "status",
          "type": "bool"
        }
      ],
      "name": "updateOrgAdminRole",
      "outputs": [],
      "stateMutability": "nonpayable",
      "type": "function"
    },
    {
      "inputs": [
        {
          "internalType": "uint256",
          "name": "_organisationId",
          "type": "uint256"
        },
        {
          "internalType": "string",
          "name": "_organisationName",
          "type": "string"
        },
        {
          "internalType": "string[]",
          "name": "_organisationInfoFields",
          "type": "string[]"
        },
        {
          "internalType": "uint256[]",
          "name": "_organisationInfoDataTypes",
          "type": "uint256[]"
        },
        {
          "internalType": "string[]",
          "name": "_organisationInfoValues",
          "type": "string[]"
        },
        {
          "internalType": "bool",
          "name": "_retired",
          "type": "bool"
        }
      ],
      "name": "updateOrganisation",
      "outputs": [],
      "stateMutability": "payable",
      "type": "function"
    }
  ],
  "bytecode": "0x60806040523480156200001157600080fd5b506200003262000026620000e660201b60201c565b620000ee60201b60201c565b6001808190555033600860006101000a81548173ffffffffffffffffffffffffffffffffffffffff021916908373ffffffffffffffffffffffffffffffffffffffff160217905550655af3107a4000600281905550655af3107a4000600381905550655af3107a4000600481905550655af3107a4000600581905550655af3107a4000600681905550655af3107a40006007819055506000600c819055506000600d819055506000600e81905550620001b2565b600033905090565b60008060009054906101000a900473ffffffffffffffffffffffffffffffffffffffff169050816000806101000a81548173ffffffffffffffffffffffffffffffffffffffff021916908373ffffffffffffffffffffffffffffffffffffffff1602179055508173ffffffffffffffffffffffffffffffffffffffff168173ffffffffffffffffffffffffffffffffffffffff167f8be0079c531659141344cd1fd0a4f28419497f9722a3daafe3b4186f6b6457e060405160405180910390a35050565b613ccb80620001c26000396000f3fe6080604052600436106101ec5760003560e01c8063881c5b4f1161010d578063a5a7a3c6116100a0578063db8d55f11161006f578063db8d55f114610693578063e895d648146106c3578063f108e225146106ec578063f2fde38b14610717578063f886f9e414610740576101ec565b8063a5a7a3c6146105e6578063af6888ef14610602578063b64ab9731461062b578063d23a7ab114610668576101ec565b80638efede3d116100dc5780638efede3d14610525578063914ea50a1461054e578063a273befc1461058b578063a43cd765146105bb576101ec565b8063881c5b4f1461048a57806388b165ef146104a65780638abd61ab146104d15780638da5cb5b146104fa576101ec565b80633a36180b116101855780636ac9f4fe116101545780636ac9f4fe14610405578063715018a61461042157806383e402c81461043857806384a831f914610461576101ec565b80633a36180b146103585780633ce92e95146103955780634a41c256146103be578063568b9bee146103e9576101ec565b806314e80a96116101c157806314e80a961461029e5780631e9b605a146102c9578063270eaf28146102f257806327b697411461031b576101ec565b806297bb12146101f1578062cfa1ee1461021a57806306abb60b146102365780630837f7f314610273575b600080fd5b3480156101fd57600080fd5b506102186004803603810190610213919061208a565b61075c565b005b610234600480360381019061022f91906123de565b6107ab565b005b34801561024257600080fd5b5061025d60048036038101906102589190612532565b6109a8565b60405161026a9190612594565b60405180910390f35b34801561027f57600080fd5b50610288610a22565b60405161029591906125be565b60405180910390f35b3480156102aa57600080fd5b506102b3610a28565b6040516102c091906125be565b60405180910390f35b3480156102d557600080fd5b506102f060048036038101906102eb91906125d9565b610a2e565b005b3480156102fe57600080fd5b506103196004803603810190610314919061262c565b610b97565b005b34801561032757600080fd5b50610342600480360381019061033d9190612532565b610d33565b60405161034f9190612594565b60405180910390f35b34801561036457600080fd5b5061037f600480360381019061037a91906126a7565b610d6f565b60405161038c9190612594565b60405180910390f35b3480156103a157600080fd5b506103bc60048036038101906103b791906126e7565b610d9e565b005b3480156103ca57600080fd5b506103d3610f1a565b6040516103e091906125be565b60405180910390f35b61040360048036038101906103fe919061274e565b610f20565b005b61041f600480360381019061041a9190612898565b6111db565b005b34801561042d57600080fd5b50610436611401565b005b34801561044457600080fd5b5061045f600480360381019061045a919061208a565b611415565b005b34801561046d57600080fd5b506104886004803603810190610483919061208a565b611464565b005b6104a4600480360381019061049f9190612a0a565b6114b3565b005b3480156104b257600080fd5b506104bb61168b565b6040516104c891906125be565b60405180910390f35b3480156104dd57600080fd5b506104f860048036038101906104f3919061208a565b611691565b005b34801561050657600080fd5b5061050f6116e0565b60405161051c9190612b16565b60405180910390f35b34801561053157600080fd5b5061054c60048036038101906105479190612b6f565b611709565b005b34801561055a57600080fd5b50610575600480360381019061057091906126a7565b6117a8565b6040516105829190612594565b60405180910390f35b6105a560048036038101906105a09190612b9c565b611810565b6040516105b291906125be565b60405180910390f35b3480156105c757600080fd5b506105d06119d3565b6040516105dd91906125be565b60405180910390f35b61060060048036038101906105fb9190612c73565b6119d9565b005b34801561060e57600080fd5b506106296004803603810190610624919061208a565b611c6a565b005b34801561063757600080fd5b50610652600480360381019061064d9190612d42565b611cb9565b60405161065f9190612594565b60405180910390f35b34801561067457600080fd5b5061067d611d45565b60405161068a91906125be565b60405180910390f35b34801561069f57600080fd5b506106a8611d4b565b6040516106ba96959493929190612da9565b60405180910390f35b3480156106cf57600080fd5b506106ea60048036038101906106e5919061208a565b611d7a565b005b3480156106f857600080fd5b50610701611dc9565b60405161070e9190612e19565b60405180910390f35b34801561072357600080fd5b5061073e60048036038101906107399190612e34565b611def565b005b61075a60048036038101906107559190612e61565b611e72565b005b610764611e9e565b61076c611f1c565b80600281905550807f859fe06bba79f41999d0d8c18643845d7d238c4d8fbdc8cfeeb58c817ddb73d460405160405180910390a26107a8611f6b565b50565b600b60008881526020019081526020016000206000878152602001908152602001600020600086815260200190815260200160002060003373ffffffffffffffffffffffffffffffffffffffff1673ffffffffffffffffffffffffffffffffffffffff16815260200190815260200160002060009054906101000a900460ff1661086a576040517f08c379a0000000000000000000000000000000000000000000000000000000008152600401610861906130b5565b60405180910390fd5b82518451146108ae576040517f08c379a00000000000000000000000000000000000000000000000000000000081526004016108a590613147565b60405180910390fd5b81518451146108f2576040517f08c379a00000000000000000000000000000000000000000000000000000000081526004016108e9906131d9565b60405180910390fd5b8685877f5ffe9e8a60cc19d4e5e534047d0a14595bb618aa5d88d27e13f81487e7fa04c7878787338860405161092c9594939291906133f8565b60405180910390a4600860009054906101000a900473ffffffffffffffffffffffffffffffffffffffff1673ffffffffffffffffffffffffffffffffffffffff166108fc6007549081150290604051600060405180830381858888f1935050505015801561099e573d6000803e3d6000fd5b5050505050505050565b6000600a6000858152602001908152602001600020600084815260200190815260200160002060008373ffffffffffffffffffffffffffffffffffffffff1673ffffffffffffffffffffffffffffffffffffffff16815260200190815260200160002060009054906101000a900460ff1690509392505050565b60075481565b60055481565b610a36611f1c565b6009600084815260200190815260200160002060003373ffffffffffffffffffffffffffffffffffffffff1673ffffffffffffffffffffffffffffffffffffffff16815260200190815260200160002060009054906101000a900460ff16610ad3576040517f08c379a0000000000000000000000000000000000000000000000000000000008152600401610aca906134d2565b60405180910390fd5b806009600085815260200190815260200160002060008473ffffffffffffffffffffffffffffffffffffffff1673ffffffffffffffffffffffffffffffffffffffff16815260200190815260200160002060006101000a81548160ff0219169083151502179055508173ffffffffffffffffffffffffffffffffffffffff16837fc715db9900cb9f185a9761f84079d0c69c3710906a1cdbd0201048f1594336bd83604051610b829190612594565b60405180910390a3610b92611f6b565b505050565b610b9f611f1c565b600b60008681526020019081526020016000206000858152602001908152602001600020600084815260200190815260200160002060003373ffffffffffffffffffffffffffffffffffffffff1673ffffffffffffffffffffffffffffffffffffffff16815260200190815260200160002060009054906101000a900460ff16610c5e576040517f08c379a0000000000000000000000000000000000000000000000000000000008152600401610c559061353e565b60405180910390fd5b80600b60008781526020019081526020016000206000868152602001908152602001600020600085815260200190815260200160002060008473ffffffffffffffffffffffffffffffffffffffff1673ffffffffffffffffffffffffffffffffffffffff16815260200190815260200160002060006101000a81548160ff0219169083151502179055508284867f92ede5d6f141c3fb83fe51dd62d7f9ab3b4c3de872d8b4983a23ec2343c516ef8585604051610d1c92919061355e565b60405180910390a4610d2c611f6b565b5050505050565b600a602052826000526040600020602052816000526040600020602052806000526040600020600092509250509054906101000a900460ff1681565b60096020528160005260406000206020528060005260406000206000915091509054906101000a900460ff1681565b610da6611f1c565b6009600085815260200190815260200160002060003373ffffffffffffffffffffffffffffffffffffffff1673ffffffffffffffffffffffffffffffffffffffff16815260200190815260200160002060009054906101000a900460ff16610e43576040517f08c379a0000000000000000000000000000000000000000000000000000000008152600401610e3a906134d2565b60405180910390fd5b80600a6000868152602001908152602001600020600085815260200190815260200160002060008473ffffffffffffffffffffffffffffffffffffffff1673ffffffffffffffffffffffffffffffffffffffff16815260200190815260200160002060006101000a81548160ff0219169083151502179055508173ffffffffffffffffffffffffffffffffffffffff1683857fde26a5d51df5a2596faa365692103f349534b5ce80369afdc6ab95ce585534f284604051610f049190612594565b60405180910390a4610f14611f6b565b50505050565b60045481565b6009600088815260200190815260200160002060003373ffffffffffffffffffffffffffffffffffffffff1673ffffffffffffffffffffffffffffffffffffffff16815260200190815260200160002060009054906101000a900460ff16610fbd576040517f08c379a0000000000000000000000000000000000000000000000000000000008152600401610fb4906135d3565b60405180910390fd5b8351855114611001576040517f08c379a0000000000000000000000000000000000000000000000000000000008152600401610ff890613665565b60405180910390fd5b8251855114611045576040517f08c379a000000000000000000000000000000000000000000000000000000000815260040161103c906136f7565b60405180910390fd5b8051825114611089576040517f08c379a000000000000000000000000000000000000000000000000000000000815260040161108090613147565b60405180910390fd5b600d547fe945a1ac805b94637b89303390a83ece12de375507c64432374284d29c93663888888888888888336040516110c9989796959493929190613750565b60405180910390a26001600a60008981526020019081526020016000206000600d54815260200190815260200160002060003373ffffffffffffffffffffffffffffffffffffffff1673ffffffffffffffffffffffffffffffffffffffff16815260200190815260200160002060006101000a81548160ff0219169083151502179055506001600d60008282546111609190613827565b92505081905550600860009054906101000a900473ffffffffffffffffffffffffffffffffffffffff1673ffffffffffffffffffffffffffffffffffffffff166108fc6003549081150290604051600060405180830381858888f193505050501580156111d1573d6000803e3d6000fd5b5050505050505050565b600960008a815260200190815260200160002060003373ffffffffffffffffffffffffffffffffffffffff1673ffffffffffffffffffffffffffffffffffffffff16815260200190815260200160002060009054906101000a900460ff16611278576040517f08c379a000000000000000000000000000000000000000000000000000000000815260040161126f906135d3565b60405180910390fd5b84518651146112bc576040517f08c379a00000000000000000000000000000000000000000000000000000000081526004016112b390613665565b60405180910390fd5b8351865114611300576040517f08c379a00000000000000000000000000000000000000000000000000000000081526004016112f7906136f7565b60405180910390fd5b8151835114611344576040517f08c379a000000000000000000000000000000000000000000000000000000000815260040161133b90613147565b60405180910390fd5b88887f63163773052cb2d86645ec9fd443a33f485b847e06dc25b74fb061790b04e789898989898989338a60405161138398979695949392919061385b565b60405180910390a3600860009054906101000a900473ffffffffffffffffffffffffffffffffffffffff1673ffffffffffffffffffffffffffffffffffffffff166108fc6006549081150290604051600060405180830381858888f193505050501580156113f5573d6000803e3d6000fd5b50505050505050505050565b611409611e9e565b6114136000611f74565b565b61141d611e9e565b611425611f1c565b80600481905550807f5c5c4232097f908312cc930f9343ae1bb8792a98c34f991a9236d88e0dc9b03a60405160405180910390a2611461611f6b565b50565b61146c611e9e565b611474611f1c565b80600581905550807f1caeea9519e251cfb6fb9af732c2fa23002affd4b80fc6da9a9a82240fa6c41760405160405180910390a26114b0611f6b565b50565b6009600087815260200190815260200160002060003373ffffffffffffffffffffffffffffffffffffffff1673ffffffffffffffffffffffffffffffffffffffff16815260200190815260200160002060009054906101000a900460ff16611550576040517f08c379a000000000000000000000000000000000000000000000000000000000815260040161154790613975565b60405180910390fd5b8251845114611594576040517f08c379a000000000000000000000000000000000000000000000000000000000815260040161158b90613147565b60405180910390fd5b81518451146115d8576040517f08c379a00000000000000000000000000000000000000000000000000000000081526004016115cf906131d9565b60405180910390fd5b857f26243ca62937e789e2a0dc48fe3d4ecef158bf55c61f7a854bcf76e3953aaf8c8686868686604051611610959493929190613995565b60405180910390a2600860009054906101000a900473ffffffffffffffffffffffffffffffffffffffff1673ffffffffffffffffffffffffffffffffffffffff166108fc6005549081150290604051600060405180830381858888f19350505050158015611682573d6000803e3d6000fd5b50505050505050565b60025481565b611699611e9e565b6116a1611f1c565b80600781905550807fff7d6e7565b568af8049a3036759983867c88adfdb144d699d4851061769b67f60405160405180910390a26116dd611f6b565b50565b60008060009054906101000a900473ffffffffffffffffffffffffffffffffffffffff16905090565b611711611e9e565b611719611f1c565b80600860006101000a81548173ffffffffffffffffffffffffffffffffffffffff021916908373ffffffffffffffffffffffffffffffffffffffff1602179055508073ffffffffffffffffffffffffffffffffffffffff167f859cab4742e4b0b5f446b9872ea8ba436a47926855f156cb7d83e3625f733c5660405160405180910390a26117a5611f6b565b50565b60006009600084815260200190815260200160002060008373ffffffffffffffffffffffffffffffffffffffff1673ffffffffffffffffffffffffffffffffffffffff16815260200190815260200160002060009054906101000a900460ff16905092915050565b60008251845114611856576040517f08c379a000000000000000000000000000000000000000000000000000000000815260040161184d90613147565b60405180910390fd5b815184511461189a576040517f08c379a0000000000000000000000000000000000000000000000000000000008152600401611891906131d9565b60405180910390fd5b600c549050807fc6165cd01e7c488c15f2325fecd5c4d2f132717dcd8cc739043083b6004cabec868686866040516118d59493929190613a04565b60405180910390a260016009600083815260200190815260200160002060003373ffffffffffffffffffffffffffffffffffffffff1673ffffffffffffffffffffffffffffffffffffffff16815260200190815260200160002060006101000a81548160ff0219169083151502179055506001600c60008282546119599190613827565b92505081905550600860009054906101000a900473ffffffffffffffffffffffffffffffffffffffff1673ffffffffffffffffffffffffffffffffffffffff166108fc6002549081150290604051600060405180830381858888f193505050501580156119ca573d6000803e3d6000fd5b50949350505050565b60065481565b600a6000868152602001908152602001600020600085815260200190815260200160002060003373ffffffffffffffffffffffffffffffffffffffff1673ffffffffffffffffffffffffffffffffffffffff16815260200190815260200160002060009054906101000a900460ff16611a87576040517f08c379a0000000000000000000000000000000000000000000000000000000008152600401611a7e90613ab1565b60405180910390fd5b8151835114611acb576040517f08c379a0000000000000000000000000000000000000000000000000000000008152600401611ac290613147565b60405180910390fd5b8051835114611b0f576040517f08c379a0000000000000000000000000000000000000000000000000000000008152600401611b06906131d9565b60405180910390fd5b8385600e547f19ccd949a270d23d7634817ce9f22bc3619aa5b793faf7d2dd7aab251eb4fbfc86868633604051611b499493929190613ad1565b60405180910390a46001600b600087815260200190815260200160002060008681526020019081526020016000206000600e54815260200190815260200160002060003373ffffffffffffffffffffffffffffffffffffffff1673ffffffffffffffffffffffffffffffffffffffff16815260200190815260200160002060006101000a81548160ff0219169083151502179055506001600e6000828254611bf19190613827565b92505081905550600860009054906101000a900473ffffffffffffffffffffffffffffffffffffffff1673ffffffffffffffffffffffffffffffffffffffff166108fc6004549081150290604051600060405180830381858888f19350505050158015611c62573d6000803e3d6000fd5b505050505050565b611c72611e9e565b611c7a611f1c565b80600381905550807f0be051ffa21d1d5b84b5750b08198f1509b8222cc69f931d7fe6a37f8693923f60405160405180910390a2611cb6611f6b565b50565b6000600b60008681526020019081526020016000206000858152602001908152602001600020600084815260200190815260200160002060008373ffffffffffffffffffffffffffffffffffffffff1673ffffffffffffffffffffffffffffffffffffffff16815260200190815260200160002060009054906101000a900460ff169050949350505050565b60035481565b600080600080600080600254600354600454600554600654600754955095509550955095509550909192939495565b611d82611e9e565b611d8a611f1c565b80600681905550807fd8b6cd93c81750ac64a6bb53ae00e2093e63fe84227bd24707bf6cb540496d6360405160405180910390a2611dc6611f6b565b50565b600860009054906101000a900473ffffffffffffffffffffffffffffffffffffffff1681565b611df7611e9e565b600073ffffffffffffffffffffffffffffffffffffffff168173ffffffffffffffffffffffffffffffffffffffff1603611e66576040517f08c379a0000000000000000000000000000000000000000000000000000000008152600401611e5d90613b9d565b60405180910390fd5b611e6f81611f74565b50565b6000611e808b8b8b8b611810565b9050611e9181888888888888610f20565b5050505050505050505050565b611ea6612038565b73ffffffffffffffffffffffffffffffffffffffff16611ec46116e0565b73ffffffffffffffffffffffffffffffffffffffff1614611f1a576040517f08c379a0000000000000000000000000000000000000000000000000000000008152600401611f1190613c09565b60405180910390fd5b565b600260015403611f61576040517f08c379a0000000000000000000000000000000000000000000000000000000008152600401611f5890613c75565b60405180910390fd5b6002600181905550565b60018081905550565b60008060009054906101000a900473ffffffffffffffffffffffffffffffffffffffff169050816000806101000a81548173ffffffffffffffffffffffffffffffffffffffff021916908373ffffffffffffffffffffffffffffffffffffffff1602179055508173ffffffffffffffffffffffffffffffffffffffff168173ffffffffffffffffffffffffffffffffffffffff167f8be0079c531659141344cd1fd0a4f28419497f9722a3daafe3b4186f6b6457e060405160405180910390a35050565b600033905090565b6000604051905090565b600080fd5b600080fd5b6000819050919050565b61206781612054565b811461207257600080fd5b50565b6000813590506120848161205e565b92915050565b6000602082840312156120a05761209f61204a565b5b60006120ae84828501612075565b91505092915050565b600080fd5b6000601f19601f8301169050919050565b7f4e487b7100000000000000000000000000000000000000000000000000000000600052604160045260246000fd5b612105826120bc565b810181811067ffffffffffffffff82111715612124576121236120cd565b5b80604052505050565b6000612137612040565b905061214382826120fc565b919050565b600067ffffffffffffffff821115612163576121626120cd565b5b602082029050602081019050919050565b600080fd5b600080fd5b600067ffffffffffffffff821115612199576121986120cd565b5b6121a2826120bc565b9050602081019050919050565b82818337600083830152505050565b60006121d16121cc8461217e565b61212d565b9050828152602081018484840111156121ed576121ec612179565b5b6121f88482856121af565b509392505050565b600082601f830112612215576122146120b7565b5b81356122258482602086016121be565b91505092915050565b600061224161223c84612148565b61212d565b9050808382526020820190506020840283018581111561226457612263612174565b5b835b818110156122ab57803567ffffffffffffffff811115612289576122886120b7565b5b8086016122968982612200565b85526020850194505050602081019050612266565b5050509392505050565b600082601f8301126122ca576122c96120b7565b5b81356122da84826020860161222e565b91505092915050565b600067ffffffffffffffff8211156122fe576122fd6120cd565b5b602082029050602081019050919050565b600061232261231d846122e3565b61212d565b9050808382526020820190506020840283018581111561234557612344612174565b5b835b8181101561236e578061235a8882612075565b845260208401935050602081019050612347565b5050509392505050565b600082601f83011261238d5761238c6120b7565b5b813561239d84826020860161230f565b91505092915050565b60008115159050919050565b6123bb816123a6565b81146123c657600080fd5b50565b6000813590506123d8816123b2565b92915050565b600080600080600080600060e0888a0312156123fd576123fc61204a565b5b600061240b8a828b01612075565b975050602061241c8a828b01612075565b965050604061242d8a828b01612075565b955050606088013567ffffffffffffffff81111561244e5761244d61204f565b5b61245a8a828b016122b5565b945050608088013567ffffffffffffffff81111561247b5761247a61204f565b5b6124878a828b01612378565b93505060a088013567ffffffffffffffff8111156124a8576124a761204f565b5b6124b48a828b016122b5565b92505060c06124c58a828b016123c9565b91505092959891949750929550565b600073ffffffffffffffffffffffffffffffffffffffff82169050919050565b60006124ff826124d4565b9050919050565b61250f816124f4565b811461251a57600080fd5b50565b60008135905061252c81612506565b92915050565b60008060006060848603121561254b5761254a61204a565b5b600061255986828701612075565b935050602061256a86828701612075565b925050604061257b8682870161251d565b9150509250925092565b61258e816123a6565b82525050565b60006020820190506125a96000830184612585565b92915050565b6125b881612054565b82525050565b60006020820190506125d360008301846125af565b92915050565b6000806000606084860312156125f2576125f161204a565b5b600061260086828701612075565b93505060206126118682870161251d565b9250506040612622868287016123c9565b9150509250925092565b600080600080600060a086880312156126485761264761204a565b5b600061265688828901612075565b955050602061266788828901612075565b945050604061267888828901612075565b93505060606126898882890161251d565b925050608061269a888289016123c9565b9150509295509295909350565b600080604083850312156126be576126bd61204a565b5b60006126cc85828601612075565b92505060206126dd8582860161251d565b9150509250929050565b600080600080608085870312156127015761270061204a565b5b600061270f87828801612075565b945050602061272087828801612075565b93505060406127318782880161251d565b9250506060612742878288016123c9565b91505092959194509250565b600080600080600080600060e0888a03121561276d5761276c61204a565b5b600061277b8a828b01612075565b975050602088013567ffffffffffffffff81111561279c5761279b61204f565b5b6127a88a828b01612200565b965050604088013567ffffffffffffffff8111156127c9576127c861204f565b5b6127d58a828b016122b5565b955050606088013567ffffffffffffffff8111156127f6576127f561204f565b5b6128028a828b01612378565b945050608088013567ffffffffffffffff8111156128235761282261204f565b5b61282f8a828b016122b5565b93505060a088013567ffffffffffffffff8111156128505761284f61204f565b5b61285c8a828b016122b5565b92505060c088013567ffffffffffffffff81111561287d5761287c61204f565b5b6128898a828b01612378565b91505092959891949750929550565b60008060008060008060008060006101208a8c0312156128bb576128ba61204a565b5b60006128c98c828d01612075565b99505060206128da8c828d01612075565b98505060408a013567ffffffffffffffff8111156128fb576128fa61204f565b5b6129078c828d01612200565b97505060608a013567ffffffffffffffff8111156129285761292761204f565b5b6129348c828d016122b5565b96505060808a013567ffffffffffffffff8111156129555761295461204f565b5b6129618c828d01612378565b95505060a08a013567ffffffffffffffff8111156129825761298161204f565b5b61298e8c828d016122b5565b94505060c08a013567ffffffffffffffff8111156129af576129ae61204f565b5b6129bb8c828d016122b5565b93505060e08a013567ffffffffffffffff8111156129dc576129db61204f565b5b6129e88c828d01612378565b9250506101006129fa8c828d016123c9565b9150509295985092959850929598565b60008060008060008060c08789031215612a2757612a2661204a565b5b6000612a3589828a01612075565b965050602087013567ffffffffffffffff811115612a5657612a5561204f565b5b612a6289828a01612200565b955050604087013567ffffffffffffffff811115612a8357612a8261204f565b5b612a8f89828a016122b5565b945050606087013567ffffffffffffffff811115612ab057612aaf61204f565b5b612abc89828a01612378565b935050608087013567ffffffffffffffff811115612add57612adc61204f565b5b612ae989828a016122b5565b92505060a0612afa89828a016123c9565b9150509295509295509295565b612b10816124f4565b82525050565b6000602082019050612b2b6000830184612b07565b92915050565b6000612b3c826124d4565b9050919050565b612b4c81612b31565b8114612b5757600080fd5b50565b600081359050612b6981612b43565b92915050565b600060208284031215612b8557612b8461204a565b5b6000612b9384828501612b5a565b91505092915050565b60008060008060808587031215612bb657612bb561204a565b5b600085013567ffffffffffffffff811115612bd457612bd361204f565b5b612be087828801612200565b945050602085013567ffffffffffffffff811115612c0157612c0061204f565b5b612c0d878288016122b5565b935050604085013567ffffffffffffffff811115612c2e57612c2d61204f565b5b612c3a87828801612378565b925050606085013567ffffffffffffffff811115612c5b57612c5a61204f565b5b612c67878288016122b5565b91505092959194509250565b600080600080600060a08688031215612c8f57612c8e61204a565b5b6000612c9d88828901612075565b9550506020612cae88828901612075565b945050604086013567ffffffffffffffff811115612ccf57612cce61204f565b5b612cdb888289016122b5565b935050606086013567ffffffffffffffff811115612cfc57612cfb61204f565b5b612d0888828901612378565b925050608086013567ffffffffffffffff811115612d2957612d2861204f565b5b612d35888289016122b5565b9150509295509295909350565b60008060008060808587031215612d5c57612d5b61204a565b5b6000612d6a87828801612075565b9450506020612d7b87828801612075565b9350506040612d8c87828801612075565b9250506060612d9d8782880161251d565b91505092959194509250565b600060c082019050612dbe60008301896125af565b612dcb60208301886125af565b612dd860408301876125af565b612de560608301866125af565b612df260808301856125af565b612dff60a08301846125af565b979650505050505050565b612e1381612b31565b82525050565b6000602082019050612e2e6000830184612e0a565b92915050565b600060208284031215612e4a57612e4961204a565b5b6000612e588482850161251d565b91505092915050565b6000806000806000806000806000806101408b8d031215612e8557612e8461204a565b5b60008b013567ffffffffffffffff811115612ea357612ea261204f565b5b612eaf8d828e01612200565b9a505060208b013567ffffffffffffffff811115612ed057612ecf61204f565b5b612edc8d828e016122b5565b99505060408b013567ffffffffffffffff811115612efd57612efc61204f565b5b612f098d828e01612378565b98505060608b013567ffffffffffffffff811115612f2a57612f2961204f565b5b612f368d828e016122b5565b97505060808b013567ffffffffffffffff811115612f5757612f5661204f565b5b612f638d828e01612200565b96505060a08b013567ffffffffffffffff811115612f8457612f8361204f565b5b612f908d828e016122b5565b95505060c08b013567ffffffffffffffff811115612fb157612fb061204f565b5b612fbd8d828e01612378565b94505060e08b013567ffffffffffffffff811115612fde57612fdd61204f565b5b612fea8d828e016122b5565b9350506101008b013567ffffffffffffffff81111561300c5761300b61204f565b5b6130188d828e016122b5565b9250506101208b013567ffffffffffffffff81111561303a5761303961204f565b5b6130468d828e01612378565b9150509295989b9194979a5092959850565b600082825260208201905092915050565b7f53656e646572206973206e6f7420616e2075706461746f720000000000000000600082015250565b600061309f601883613058565b91506130aa82613069565b602082019050919050565b600060208201905081810360008301526130ce81613092565b9050919050565b7f4669656c64206e616d657320616e6420747970657320646f206e6f74206d617460008201527f6368000000000000000000000000000000000000000000000000000000000000602082015250565b6000613131602283613058565b915061313c826130d5565b604082019050919050565b6000602082019050818103600083015261316081613124565b9050919050565b7f4669656c64206e616d657320616e642076616c75657320646f206e6f74206d6160008201527f7463680000000000000000000000000000000000000000000000000000000000602082015250565b60006131c3602383613058565b91506131ce82613167565b604082019050919050565b600060208201905081810360008301526131f2816131b6565b9050919050565b600081519050919050565b600082825260208201905092915050565b6000819050602082019050919050565b600081519050919050565b600082825260208201905092915050565b60005b8381101561325f578082015181840152602081019050613244565b60008484015250505050565b600061327682613225565b6132808185613230565b9350613290818560208601613241565b613299816120bc565b840191505092915050565b60006132b0838361326b565b905092915050565b6000602082019050919050565b60006132d0826131f9565b6132da8185613204565b9350836020820285016132ec85613215565b8060005b85811015613328578484038952815161330985826132a4565b9450613314836132b8565b925060208a019950506001810190506132f0565b50829750879550505050505092915050565b600081519050919050565b600082825260208201905092915050565b6000819050602082019050919050565b61336f81612054565b82525050565b60006133818383613366565b60208301905092915050565b6000602082019050919050565b60006133a58261333a565b6133af8185613345565b93506133ba83613356565b8060005b838110156133eb5781516133d28882613375565b97506133dd8361338d565b9250506001810190506133be565b5085935050505092915050565b600060a082019050818103600083015261341281886132c5565b90508181036020830152613426818761339a565b9050818103604083015261343a81866132c5565b90506134496060830185612b07565b6134566080830184612585565b9695505050505050565b7f53656e646572206973206e6f7420616e206f7267616e69736174696f6e20616460008201527f6d696e0000000000000000000000000000000000000000000000000000000000602082015250565b60006134bc602383613058565b91506134c782613460565b604082019050919050565b600060208201905081810360008301526134eb816134af565b9050919050565b7f53656e646572206973206e6f74206120646f63756d656e742075706461746f72600082015250565b6000613528602083613058565b9150613533826134f2565b602082019050919050565b600060208201905081810360008301526135578161351b565b9050919050565b60006040820190506135736000830185612b07565b6135806020830184612585565b9392505050565b7f53656e646572206973206e6f7420616e2061646d696e00000000000000000000600082015250565b60006135bd601683613058565b91506135c882613587565b602082019050919050565b600060208201905081810360008301526135ec816135b0565b9050919050565b7f436f6c6c656374696f6e20696e666f206669656c64206e616d657320616e642060008201527f747970657320646f206e6f74206d617463680000000000000000000000000000602082015250565b600061364f603283613058565b915061365a826135f3565b604082019050919050565b6000602082019050818103600083015261367e81613642565b9050919050565b7f436f6c6c656374696f6e20696e666f206669656c64206e616d657320616e642060008201527f76616c75657320646f206e6f74206d6174636800000000000000000000000000602082015250565b60006136e1603383613058565b91506136ec82613685565b604082019050919050565b60006020820190508181036000830152613710816136d4565b9050919050565b600061372282613225565b61372c8185613058565b935061373c818560208601613241565b613745816120bc565b840191505092915050565b600061010082019050613766600083018b6125af565b8181036020830152613778818a613717565b9050818103604083015261378c81896132c5565b905081810360608301526137a0818861339a565b905081810360808301526137b481876132c5565b905081810360a08301526137c881866132c5565b905081810360c08301526137dc818561339a565b90506137eb60e0830184612b07565b9998505050505050505050565b7f4e487b7100000000000000000000000000000000000000000000000000000000600052601160045260246000fd5b600061383282612054565b915061383d83612054565b9250828201905080821115613855576138546137f8565b5b92915050565b6000610100820190508181036000830152613876818b613717565b9050818103602083015261388a818a6132c5565b9050818103604083015261389e818961339a565b905081810360608301526138b281886132c5565b905081810360808301526138c681876132c5565b905081810360a08301526138da818661339a565b90506138e960c0830185612b07565b6138f660e0830184612585565b9998505050505050505050565b7f53656e646572206973206e6f7420616e206f7267616e69736174696f6e206d6160008201527f6e61676572000000000000000000000000000000000000000000000000000000602082015250565b600061395f602583613058565b915061396a82613903565b604082019050919050565b6000602082019050818103600083015261398e81613952565b9050919050565b600060a08201905081810360008301526139af8188613717565b905081810360208301526139c381876132c5565b905081810360408301526139d7818661339a565b905081810360608301526139eb81856132c5565b90506139fa6080830184612585565b9695505050505050565b60006080820190508181036000830152613a1e8187613717565b90508181036020830152613a3281866132c5565b90508181036040830152613a46818561339a565b90508181036060830152613a5a81846132c5565b905095945050505050565b7f53656e646572206973206e6f742061207075626c697368657200000000000000600082015250565b6000613a9b601983613058565b9150613aa682613a65565b602082019050919050565b60006020820190508181036000830152613aca81613a8e565b9050919050565b60006080820190508181036000830152613aeb81876132c5565b90508181036020830152613aff818661339a565b90508181036040830152613b1381856132c5565b9050613b226060830184612b07565b95945050505050565b7f4f776e61626c653a206e6577206f776e657220697320746865207a65726f206160008201527f6464726573730000000000000000000000000000000000000000000000000000602082015250565b6000613b87602683613058565b9150613b9282613b2b565b604082019050919050565b60006020820190508181036000830152613bb681613b7a565b9050919050565b7f4f776e61626c653a2063616c6c6572206973206e6f7420746865206f776e6572600082015250565b6000613bf3602083613058565b9150613bfe82613bbd565b602082019050919050565b60006020820190508181036000830152613c2281613be6565b9050919050565b7f5265656e7472616e637947756172643a207265656e7472616e742063616c6c00600082015250565b6000613c5f601f83613058565b9150613c6a82613c29565b602082019050919050565b60006020820190508181036000830152613c8e81613c52565b905091905056fea2646970667358221220fbd0dd683a33a508b88cb6c352a8570db6337ff496347ed72ef039662661299564736f6c63430008110033",
  "linkReferences": {},
  "deployedLinkReferences": {}
}